:020000040000FA
:100000000C9461000C947E000C947E000C947E0095
:100010000C947E000C947E000C947E000C947E0068
:100020000C947E000C947E000C947E000C947E0058
:100030000C947E000C947E000C947E000C947E0048
:100040000C940D020C947E000C947E000C947E00A7
:100050000C947E000C947E000C947E000C947E0028
:100060000C947E000C947E00000000002400270009
:100070002A0000000000250028002B0000000000DE
:1000800023002600290004040404040404040202DA
:100090000202020203030303030301020408102007
:1000A0004080010204081020010204081020000012
:1000B0000008000201000003040700000000000027
:1000C000000011241FBECFEFD8E0DEBFCDBF11E08E
:1000D000A0E0B1E0E0E8F9E002C005900D92A630A2
:1000E000B107D9F721E0A6E0B1E001C01D92A2322C
:1000F000B207E1F70E9457020C94BE040C94000072
:10010000833081F028F4813099F08230A9F008958D
:100110008730A9F08830C9F08430B1F48091800034
:100120008F7D03C0809180008F7780938000089539
:1001300084B58F7784BD089584B58F7DFBCF809182
:10014000B0008F778093B00008958091B0008F7DCC
:10015000F9CFCF93DF93282F30E0F901E255FF4F1D
:100160008491F901E656FF4FD491F901EA57FF4F08
:10017000C491CC23A1F081110E948000EC2FF0E00B
:10018000EE0FFF1FE458FF4FA591B491EC91ED23C2
:1001900081E090E009F480E0DF91CF91089580E064
:1001A00090E0FACF1F93CF93DF93282F30E0F9012F
:1001B000E255FF4F8491F901E656FF4FD491F901C2
:1001C000EA57FF4FC491CC23A9F0162F81110E944A
:1001D0008000EC2FF0E0EE0FFF1FEE58FF4FA591CF
:1001E000B4918FB7F894EC91111108C0D095DE232B
:1001F000DC938FBFDF91CF911F910895DE2BF8CF55
:10020000CF93DF9390E0FC01E656FF4F24918A578D
:100210009F4FFC0184918823D1F090E0880F991FB3
:10022000FC01E859FF4FA591B491FC01EE58FF4F36
:10023000C591D49161110EC09FB7F8948C91E22FB3
:10024000E0958E238C932881E223E8839FBFDF9182
:10025000CF9108958FB7F894EC91E22BEC938FBF78
:10026000F6CF3FB7F89480911E0190911F01A091A5
:100270002001B091210126B5A89B05C02F3F19F0A0
:100280000196A11DB11D3FBFBA2FA92F982F882716
:10029000BC01CD01620F711D811D911D42E0660FF1
:1002A000771F881F991F4A95D1F708958F929F92C3
:1002B000AF92BF92CF92DF92EF92FF920E943101F4
:1002C0004B015C0188ECC82ED12CE12CF12C0E9452
:1002D0003101681979098A099B09683E73408105D3
:1002E0009105A8F321E0C21AD108E108F10888EECF
:1002F000880E83E0981EA11CB11CC114D104E10436
:10030000F10429F7FF90EF90DF90CF90BF90AF906E
:100310009F908F9008952FB7F89460911A01709173
:100320001B0180911C0190911D012FBF08951F9307
:10033000CF93DF93EC01162F682F617082E00E944B
:10034000D200BE0175956795617083E00E94D2006E
:10035000BE017595679575956795617084E00E94FB
:10036000D20023E0D595C7952A95E1F76C2F6170EF
:1003700085E00E94D20060E0812F0E94D2008BE9CC
:100380009FE00197F1F761E0812FDF91CF911F91FD
:100390000C94D200CF92DF92EF92FF920F931F93B3
:1003A000CF93DF937B018A01CAE0D0E0BE010E94B7
:1003B00096049B016C0166E070E0C9010E94970100
:1003C00067E070E0C6010E949701C701BE010E946C
:1003D00096049B017C0168E070E0C9010E949701CE
:1003E00069E070E0C7010E949701C801BE010E9448
:1003F00096049B01EC016AE070E0C9010E9497013C
:100400006BE070E0CE01DF91CF911F910F91FF90D3
:10041000EF90DF90CF900C9497011F920F920FB640
:100420000F9211242F933F938F939F93AF93BF937A
:1004300080911A0190911B01A0911C01B0911D01A6
:100440003091190123E0230F2D3758F50196A11D96
:10045000B11D2093190180931A0190931B01A09361
:100460001C01B0931D0180911E0190911F01A0916C
:100470002001B09121010196A11DB11D80931E01A3
:1004800090931F01A0932001B0932101BF91AF91E0
:100490009F918F913F912F910F900FBE0F901F90C2
:1004A000189526E8230F0296A11DB11DD2CF78948E
:1004B00084B5826084BD84B5816084BD85B5826069
:1004C00085BD85B5816085BD80916E00816080931A
:1004D0006E00109281008091810082608093810083
:1004E0008091810081608093810080918000816093
:1004F000809380008091B10084608093B1008091EE
:10050000B00081608093B00080917A008460809315
:100510007A0080917A00826080937A0080917A00DC
:10052000816080937A0080917A00806880937A005D
:100530001092C10060E08EE00E94000160E08FE058
:100540000E94000160E080E10E94000160E081E122
:100550000E94000160E082E10E94000160E083E10E
:100560000E94000161E082E00E94000161E083E0FE
:100570000E94000161E084E00E94000161E085E0EA
:100580000E94000161E086E00E94000161E087E0D6
:100590000E94000161E088E00E94000161E089E0C2
:1005A0000E94000161E08AE00E94000161E08BE0AE
:1005B0000E94000161E08CE00E94000161E08DE09A
:1005C0000E94000160E08CE00E94D20060E08DE0BB
:1005D0000E94D20088248394CCE3D0E008E110E0AC
:1005E00080E0E82E80E0F82E9924939492E0C92EC2
:1005F000D12C80910C01882309F4D4C08EE00E9494
:10060000A900019709F0B0C010920C0160E08CE0E5
:100610000E94D20010920701909206010E948B0165
:10062000A0901301B0901401409015015090160154
:10063000609017017090180164197509860997096F
:10064000683E73408105910508F44CC082E0A8160D
:10065000B10409F44BC00E948B01609315017093A3
:1006600016018093170190931801809111019091C8
:10067000120101968C3391050CF01CC1909312016C
:100680008093110180910001882361F120910D0177
:1006900030910E01809101019091020128173907D4
:1006A00009F520910F013091100180910301909183
:1006B000040128173907B1F48091110190911201BA
:1006C000892B81F48091060181110CC090920C015C
:1006D0000E948B01609308017093090180930A01C5
:1006E00090930B01A114B10409F00BC140911101C9
:1006F0005091120160910F017091100180910D01D4
:1007000090910E010E94CA0180910C01882329F169
:100710000E948B01409008015090090160900A01ED
:1007200070900B01641975098609970960367A4E35
:100730008105910590F00E948B01609308017093F0
:10074000090180930A0190930B01609107016825CC
:10075000609307018CE00E94D200E114F10409F4D7
:1007600048CF0E94000045CF8FE00E94A90001976A
:1007700009F44ACF80E10E94A900019709F444CF0F
:1007800081E10E94A900019709F43ECF82E10E9415
:10079000A900019709F438CF83E10E94A9000197CD
:1007A00009F432CF8EE00E94A900019709F041C000
:1007B0000E945601D0921401C092130180E10E9460
:1007C000A900019771F40E94560180910D0190914A
:1007D0000E010196B8010E94960490930E01809339
:1007E0000D0181E10E94A900019771F40E94560158
:1007F00080910F01909110010196BE010E94960414
:100800009093100180930F0182E10E94A90001974B
:1008100009F004CF0E9456018091110190911201BC
:100820000196BE010E9496049093120180931101DB
:10083000F5CE8FE00E94A9005C01019779F50E9436
:100840005601B0921401A092130180E10E94A90008
:10085000019771F40E94560180910101909102016B
:100860000196B8010E9496049093020180930101C1
:1008700081E10E94A900019771F40E9456018091C4
:100880000301909104010196BE010E949604909389
:1008900004018093030190920001C0CE8091130166
:1008A00090911401892B09F4B9CE10921401109281
:1008B0001301B4CE109212011092110180910F0118
:1008C0009091100101968C3391052CF490931001B6
:1008D00080930F01D7CE1092100110920F018091DA
:1008E0000D0190910E010196883191052CF49093A1
:1008F0000E0180930D01C6CE10920E0110920D01D3
:10090000C1CE21E0A216B10459F4609103017091A7
:10091000040150E040E08091010190910201F2CE8B
:1009200082E0A816B10409F0EFCEE0CE97FB072EC7
:1009300016F4009407D077FD09D00E94AA0407FCA2
:1009400005D03EF4909581959F4F089570956195DF
:100950007F4F0895AA1BBB1B51E107C0AA1FBB1FF5
:10096000A617B70710F0A61BB70B881F991F5A953B
:10097000A9F780959095BC01CD010895F894FFCF1B
:060980000102000200006C
:107E0000112484B714BE81FFF0D085E080938100F7
:107E100082E08093C00088E18093C10086E0809377
:107E2000C20080E18093C4008EE0C9D0259A86E02C
:107E300020E33CEF91E0309385002093840096BBD3
:107E4000B09BFECF1D9AA8958150A9F7CC24DD24C4
:107E500088248394B5E0AB2EA1E19A2EF3E0BF2EE7
:107E6000A2D0813461F49FD0082FAFD0023811F036
:107E7000013811F484E001C083E08DD089C08234E0
:107E800011F484E103C0853419F485E0A6D080C0E4
:107E9000853579F488D0E82EFF2485D0082F10E0AE
:107EA000102F00270E291F29000F111F8ED06801E7
:107EB0006FC0863521F484E090D080E0DECF843638
:107EC00009F040C070D06FD0082F6DD080E0C81688
:107ED00080E7D80618F4F601B7BEE895C0E0D1E017
:107EE00062D089930C17E1F7F0E0CF16F0E7DF06D8
:107EF00018F0F601B7BEE89568D007B600FCFDCFD4
:107F0000A601A0E0B1E02C9130E011968C91119780
:107F100090E0982F8827822B932B1296FA010C0160
:107F200087BEE89511244E5F5F4FF1E0A038BF0790
:107F300051F7F601A7BEE89507B600FCFDCF97BE46
:107F4000E89526C08437B1F42ED02DD0F82E2BD052
:107F50003CD0F601EF2C8F010F5F1F4F84911BD097
:107F6000EA94F801C1F70894C11CD11CFA94CF0C13
:107F7000D11C0EC0853739F428D08EE10CD085E9AC
:107F80000AD08FE07ACF813511F488E018D01DD067
:107F900080E101D065CF982F8091C00085FFFCCF94
:107FA0009093C60008958091C00087FFFCCF809118
:107FB000C00084FD01C0A8958091C6000895E0E648
:107FC000F0E098E1908380830895EDDF803219F02E
:107FD00088E0F5DFFFCF84E1DECF1F93182FE3DFCA
:107FE0001150E9F7F2DF1F91089580E0E8DFEE27F6
:047FF000FF270994CA
:027FFE00040479
:00000001FF
