:020000040000FA
:100000000C9462000C948A000C948A000C948A0070
:100010000C948A000C948A000C948A000C948A0038
:100020000C948A000C948A000C948A000C948A0028
:100030000C948A000C948A000C948A000C948A0018
:100040000C9471030C948A000C94E1030C94BB0390
:100050000C948A000C948A000C948A000C948A00F8
:100060000C948A000C948A000000000024002700F1
:100070002A0000000000250028002B0000000000DE
:1000800023002600290004040404040404040202DA
:100090000202020203030303030301020408102007
:1000A0004080010204081020010204081020000012
:1000B0000008000201000003040700000000000027
:1000C0000000160611241FBECFEFD8E0DEBFCDBF63
:1000D00011E0A0E0B1E0EAE2FDE002C005900D927F
:1000E000A434B107D9F721E0A4E4B1E001C01D9226
:1000F000A43FB207E1F710E0C2E6D0E004C02197C8
:10010000FE010E948D06C136D107C9F70E94130473
:100110000C9493060C940000833081F028F4813015
:1001200099F08230A9F008958730A9F08830C9F09D
:100130008430B1F4809180008F7D03C08091800075
:100140008F7780938000089584B58F7784BD08955C
:1001500084B58F7DFBCF8091B0008F778093B00006
:1001600008958091B0008F7DF9CFCF93DF93282F32
:1001700030E0F901E255FF4F8491F901E656FF4F57
:10018000D491F901EA57FF4FC491CC23A1F081111A
:100190000E948C00EC2FF0E0EE0FFF1FE458FF4FA1
:1001A000A591B491EC91ED2381E090E009F480E019
:1001B000DF91CF91089580E090E0FACF1F93CF9325
:1001C000DF93282F30E0F901E255FF4F8491F901C8
:1001D000E656FF4FD491F901EA57FF4FC491CC2363
:1001E000A9F0162F81110E948C00EC2FF0E0EE0F89
:1001F000FF1FEE58FF4FA591B4918FB7F894EC9183
:10020000111108C0D095DE23DC938FBFDF91CF9111
:100210001F910895DE2BF8CFCF93DF9390E0FC0180
:10022000E656FF4F24918A579F4FFC018491882303
:10023000D1F090E0880F991FFC01E859FF4FA5917C
:10024000B491FC01EE58FF4FC591D49161110EC0DD
:100250009FB7F8948C91E22FE0958E238C932881A0
:10026000E223E8839FBFDF91CF9108958FB7F89481
:10027000EC91E22BEC938FBFF6CF3FB7F8948091CF
:10028000530190915401A0915501B091560126B5AA
:10029000A89B05C02F3F19F00196A11DB11D3FBFBE
:1002A000BA2FA92F982F8827BC01CD01620F711D8D
:1002B000811D911D42E0660F771F881F991F4A9587
:1002C000D1F708958F929F92AF92BF92CF92DF9213
:1002D000EF92FF920E943D014B015C0188ECC82E19
:1002E000D12CE12CF12C0E943D01681979098A0971
:1002F0009B09683E734081059105A8F321E0C21A6D
:10030000D108E108F10888EE880E83E0981EA11C50
:10031000B11CC114D104E104F10429F7FF90EF905E
:10032000DF90CF90BF90AF909F908F900895AF9245
:10033000BF92CF92DF92EF92FF920F931F93CF93D2
:10034000DF936C017B018B01040F151FEB015E0134
:10035000AE18BF08C017D10759F06991D601ED91C9
:10036000FC910190F081E02DC6010995892B79F768
:10037000C501DF91CF911F910F91FF90EF90DF901A
:10038000CF90BF90AF900895FC01538D448D252FE1
:1003900030E0842F90E0821B930B541710F0CF961F
:1003A000089501970895FC01918D828D981761F051
:1003B000A28DAE0FBF2FB11D5D968C91928D9F5F68
:1003C0009F73928F90E008958FEF9FEF0895FC0147
:1003D000918D828D981731F0828DE80FF11D858DFA
:1003E00090E008958FEF9FEF0895FC01918D228D8D
:1003F000892F90E0805C9F4F821B91098F73992712
:10040000089587E591E00E94F50121E0892B09F428
:1004100020E0822F089580E090E0892B29F00E944F
:10042000010281110C9400000895FC01A48DA80F15
:10043000B92FB11DA35ABF4F2C91848D90E0019626
:100440008F739927848FA689B7892C93A089B18946
:100450008C91837080648C93938D848D981306C0E7
:100460000288F389E02D80818F7D80830895EF924B
:10047000FF920F931F93CF93DF93EC0181E0888F5E
:100480009B8D8C8D98131AC0E889F989808185FF2E
:1004900015C09FB7F894EE89FF896083E889F989D0
:1004A00080818370806480839FBF81E090E0DF91D2
:1004B000CF911F910F91FF90EF900895F62E0B8D25
:1004C00010E00F5F1F4F0F731127E02E8C8D8E11E0
:1004D0000CC00FB607FCFACFE889F989808185FF47
:1004E000F5CFCE010E941502F1CFEB8DEC0FFD2F61
:1004F000F11DE35AFF4FF0829FB7F8940B8FEA8902
:10050000FB8980818062CFCFCF93DF93EC01888D10
:100510008823B9F0AA89BB89E889F9898C9185FD7E
:1005200003C0808186FD0DC00FB607FCF7CF8C910C
:1005300085FFF2CF808185FFEDCFCE010E941502AD
:10054000E9CFDF91CF9108951F93CF93DF93EC0113
:10055000162F682F617082E00E94DE00BE01759543
:100560006795617083E00E94DE00BE017595679516
:1005700075956795617084E00E94DE0023E0D59553
:10058000C7952A95E1F76C2F617085E00E94DE0027
:1005900060E0812F0E94DE008BE99FE00197F1F778
:1005A00061E0812FDF91CF911F910C94DE00FC015F
:1005B00001900020E9F73197AF01481B590BBC01AE
:1005C00087E591E00C9497018F929F92AF92BF9232
:1005D000CF92DF92EF92FF920F931F93CF93DF930F
:1005E000CDB7DEB7A1970FB6F894DEBF0FBECDBF73
:1005F0006B017C01F7FE41C06DE287E591E00E944E
:1006000037028C0122273327A9012C193D094E09F5
:100610005F0919A2CE0181967C019AE0892E912C66
:10062000A12CB12CCA01B901A50194010E94570661
:10063000605DF70162937F01211531054105510588
:1006400089F790E080E0309719F0CF010E94D7023F
:10065000800F911FA1960FB6F894DEBF0FBECDBFDD
:10066000DF91CF911F910F91FF90EF90DF90CF908E
:10067000BF90AF909F908F900895AC019B0119A2FD
:100680008E010F5D1F4F8AE0C82ED12CE12CF12C7A
:10069000CA01B901A70196010E945706605DF801E1
:1006A00062938F01211531054105510589F790E0CD
:1006B00080E0309779F2CF010E94D702CBCFCF9361
:1006C000DF93BC01990F880B990B0E94E402EC01A7
:1006D00082E191E00E94D7028C0F9D1FDF91CF91A4
:1006E00008951F920F920FB60F9211242F933F93EC
:1006F0008F939F93AF93BF9380914F01909150013F
:10070000A0915101B091520130914E0123E0230F8D
:100710002D3758F50196A11DB11D20934E018093F0
:100720004F0190935001A0935101B09352018091D9
:10073000530190915401A0915501B0915601019639
:10074000A11DB11D8093530190935401A0935501B5
:10075000B0935601BF91AF919F918F913F912F918F
:100760000F900FBE0F901F90189526E8230F02964A
:10077000A11DB11DD2CF1F920F920FB60F9211245F
:100780002F933F934F935F936F937F938F939F9399
:10079000AF93BF93EF93FF9387E591E00E9415021B
:1007A000FF91EF91BF91AF919F918F917F916F9149
:1007B0005F914F913F912F910F900FBE0F901F901F
:1007C00018951F920F920FB60F9211242F938F93AB
:1007D0009F93EF93FF93E0916701F091680180810F
:1007E000E0916D01F0916E0182FD1BC090818091BE
:1007F00070018F5F8F7320917101821741F0E0913A
:100800007001F0E0E95AFE4F958F80937001FF91DF
:10081000EF919F918F912F910F900FBE0F901F908E
:1008200018958081F4CF789484B5826084BD84B5B6
:10083000816084BD85B5826085BD85B5816085BDDB
:1008400080916E00816080936E0010928100809193
:10085000810082608093810080918100816080931B
:100860008100809180008160809380008091B10040
:1008700084608093B1008091B00081608093B0006B
:1008800080917A00846080937A0080917A008260FF
:1008900080937A0080917A00816080937A008091C1
:1008A0007A00806880937A001092C100E09167011D
:1008B000F091680182E08083E0916301F09164012E
:1008C0001082E0916501F09166018FEC80831092B7
:1008D0006F01E0916B01F0916C0186E08083E09103
:1008E0006901F0916A01808180618083E0916901F2
:1008F000F0916A01808188608083E0916901F091C4
:100900006A01808180688083E0916901F0916A01C9
:1009100080818F7D808360E08EE00E940C0160E02A
:1009200080E10E940C0160E081E10E940C0160E026
:1009300082E10E940C0161E082E00E940C0161E012
:1009400083E00E940C0161E084E00E940C0161E000
:1009500085E00E940C0161E086E00E940C0161E0EC
:1009600087E00E940C0161E088E00E940C0161E0D8
:1009700089E00E940C0161E08AE00E940C0161E0C4
:100980008BE00E940C0161E086E00E94DE0061E0E5
:1009900087E00E94DE0061E088E00E94DE0061E006
:1009A00089E00E94DE0061E08AE00E94DE0061E0F2
:1009B0008BE00E94DE000CE310E088E1882E912C91
:1009C000CAE0D0E090E0692E90E0792E8EE00E949F
:1009D000B500019709F059C00E94620180E10E94B0
:1009E000B5000197C1F40E94620180914401909189
:1009F00045010196B4010E944306909345018093FE
:100A0000440185E191E00E94D702809144019091D8
:100A100045010E945F0381E10E94B5000197C1F486
:100A20000E94620180914601909147010196B801B0
:100A30000E944306909347018093460180E291E033
:100A40000E94D70280914601909147010E945F0366
:100A500082E10E94B5000197C1F40E946201809179
:100A60004801909149010196B8010E944306909374
:100A70004901809348018DE291E00E94D702809164
:100A80004801909149010E945F032FB7F89480912B
:100A90004F0190915001A0915101B09152012FBF8F
:100AA00040914A0150914B0160914C0170914D0170
:100AB000841B950BA60BB70B883E9340A105B1058F
:100AC00008F446C02FB7F89480914F0190915001DF
:100AD000A0915101B09152012FBF80934A01909390
:100AE0004B01A0934C01B0934D018091480190912E
:100AF000490101968C3391050CF071C09093490126
:100B0000809348018AE391E00E94D70260914401FA
:100B100070914501072E000C880B990B0E94E4028E
:100B200081E491E00E94D7026091460170914701F3
:100B3000072E000C880B990B0E94E40281E491E0DF
:100B40000E94D70280914801909149010E945F0361
:100B5000E0904801F0904901C0904601D0904701D3
:100B60008091440190914501BE010E9443069B0182
:100B70005C0166E070E0C9010E94A40267E070E0D9
:100B8000C5010E94A402C601BE010E9443069B014A
:100B90006C0168E070E0C9010E94A40269E070E0A5
:100BA000C6010E94A402C701BE010E9443069B0128
:100BB0007C016AE070E0C9010E94A4026BE070E071
:100BC000C7010E94A4026114710409F4FFCE0E94BF
:100BD0000102882309F4FACE0E940000F7CE109299
:100BE0004901109248018091460190914701019678
:100BF0008C3391052CF4909347018093460182CF6A
:100C00001092470110924601809144019091450154
:100C10000196883191052CF490934501809344010D
:100C200071CF10924501109244016CCFE7E5F1E0DD
:100C30001382128288EE93E0A0E0B0E08483958373
:100C4000A683B78384E091E09183808385EC90E074
:100C50009587848784EC90E09787868780EC90E086
:100C6000918B808B81EC90E0938B828B82EC90E077
:100C7000958B848B86EC90E0978B868B118E128EF1
:100C8000138E148E089597FB072E16F4009407D048
:100C900077FD09D00E94790607FC05D03EF49095B7
:100CA00081959F4F0895709561957F4F0895A1E2BA
:100CB0001A2EAA1BBB1BFD010DC0AA1FBB1FEE1FD6
:100CC000FF1FA217B307E407F50720F0A21BB30B21
:100CD000E40BF50B661F771F881F991F1A9469F79D
:100CE00060957095809590959B01AC01BD01CF01F9
:100CF0000895AA1BBB1B51E107C0AA1FBB1FA61763
:100D0000B70710F0A61BB70B881F991F5A95A9F7B4
:100D100080959095BC01CD010895EE0FFF1F0590C1
:100D2000F491E02D0994F894FFCF00000000370201
:100D30009701C4018402F501D301E7010D0A0053B4
:100D4000657420486F75723A2000536574204D69B0
:100D50006E7574653A2000536574205365636F6E39
:0E0D6000643A200054696D653A20003A0000A4
:107E0000112484B714BE81FFF0D085E080938100F7
:107E100082E08093C00088E18093C10086E0809377
:107E2000C20080E18093C4008EE0C9D0259A86E02C
:107E300020E33CEF91E0309385002093840096BBD3
:107E4000B09BFECF1D9AA8958150A9F7CC24DD24C4
:107E500088248394B5E0AB2EA1E19A2EF3E0BF2EE7
:107E6000A2D0813461F49FD0082FAFD0023811F036
:107E7000013811F484E001C083E08DD089C08234E0
:107E800011F484E103C0853419F485E0A6D080C0E4
:107E9000853579F488D0E82EFF2485D0082F10E0AE
:107EA000102F00270E291F29000F111F8ED06801E7
:107EB0006FC0863521F484E090D080E0DECF843638
:107EC00009F040C070D06FD0082F6DD080E0C81688
:107ED00080E7D80618F4F601B7BEE895C0E0D1E017
:107EE00062D089930C17E1F7F0E0CF16F0E7DF06D8
:107EF00018F0F601B7BEE89568D007B600FCFDCFD4
:107F0000A601A0E0B1E02C9130E011968C91119780
:107F100090E0982F8827822B932B1296FA010C0160
:107F200087BEE89511244E5F5F4FF1E0A038BF0790
:107F300051F7F601A7BEE89507B600FCFDCF97BE46
:107F4000E89526C08437B1F42ED02DD0F82E2BD052
:107F50003CD0F601EF2C8F010F5F1F4F84911BD097
:107F6000EA94F801C1F70894C11CD11CFA94CF0C13
:107F7000D11C0EC0853739F428D08EE10CD085E9AC
:107F80000AD08FE07ACF813511F488E018D01DD067
:107F900080E101D065CF982F8091C00085FFFCCF94
:107FA0009093C60008958091C00087FFFCCF809118
:107FB000C00084FD01C0A8958091C6000895E0E648
:107FC000F0E098E1908380830895EDDF803219F02E
:107FD00088E0F5DFFFCF84E1DECF1F93182FE3DFCA
:107FE0001150E9F7F2DF1F91089580E0E8DFEE27F6
:047FF000FF270994CA
:027FFE00040479
:00000001FF
