:020000040000FA
:100000000C9462000C947F000C947F000C947F0091
:100010000C947F000C947F000C947F000C94A70339
:100020000C947F000C947F000C947F000C947F0054
:100030000C947F000C947F000C947F000C947F0044
:100040000C945D030C947F000C947F000C947F0053
:100050000C947F000C947F000C947F000C947F0024
:100060000C947F000C947F00020000000024002705
:10007000002A0000000000250028002B00000000DE
:1000800000230026002900040404040404040402DC
:100090000202020202030303030303010204081025
:1000A00020408001020408102001020408102000F2
:1000B0000000080002010000030407000000000027
:1000C0000000000011241FBECFEFD8E0DEBFCDBF7F
:1000D00011E0A0E0B1E0E6E7FDE002C005900D927E
:1000E000A430B107D9F721E0A4E0B1E001C01D922E
:1000F000A033B207E1F70E9403040C94B9060C94F4
:100100000000833081F028F4813099F08230A9F02A
:1001100008958730A9F08830C9F08430B1F4809117
:1001200080008F7D03C0809180008F778093800056
:10013000089584B58F7784BD089584B58F7DFBCFF6
:100140008091B0008F778093B00008958091B000C7
:100150008F7DF9CFCF93DF93282F30E0F901E15560
:10016000FF4F8491F901E556FF4FD491F901E9570A
:10017000FF4FC491CC23A1F081110E948100EC2F8C
:10018000F0E0EE0FFF1FE358FF4FA591B491EC9103
:10019000ED2381E090E009F480E0DF91CF910895B4
:1001A00080E090E0FACF1F93CF93DF93282F30E0C9
:1001B000F901E155FF4F8491F901E556FF4FD491C4
:1001C000F901E957FF4FC491CC23A9F0162F8111F3
:1001D0000E948100EC2FF0E0EE0FFF1FED58FF4F63
:1001E000A591B4918FB7F894EC91111108C0D095F6
:1001F000DE23DC938FBFDF91CF911F910895DE2B1B
:10020000F8CFCF93DF9390E0FC01E556FF4F2491A8
:1002100089579F4FFC0184918823D1F090E0880F8B
:10022000991FFC01E759FF4FA591B491FC01ED58CE
:10023000FF4FC591D49161110EC09FB7F8948C9176
:10024000E22FE0958E238C932881E223E8839FBFE1
:10025000DF91CF9108958FB7F894EC91E22BEC9356
:100260008FBFF6CF3FB7F89480912C0190912D016C
:10027000A0912E01B0912F0126B5A89B05C02F3F5C
:1002800019F00196A11DB11D3FBFBA2FA92F982FBC
:100290008827BC01CD01620F711D811D911D42E0B7
:1002A000660F771F881F991F4A95D1F708958F927F
:1002B0009F92AF92BF92CF92DF92EF92FF924B014B
:1002C0005C010E9432016B017C010E9432016C19B9
:1002D0007D098E099F09683E734081059105A8F349
:1002E00021E0821A9108A108B10888EEC80E83E0C7
:1002F000D81EE11CF11C81149104A104B10429F75A
:10030000FF90EF90DF90CF90BF90AF909F908F9035
:1003100008959091000189130BC0E8E6F0E0E491A4
:100320009FEF90930001E13049F028F0E23061F056
:1003300060E00C94D30010926E00FACF90916F00A1
:100340009D7F90936F00F4CF909170009D7F90936C
:10035000700091E09093B0009091B100987F94600C
:100360009093B1001092B300E3CF0F931F93CF93FC
:100370008C01809100018C3079F08F3F09F44DC0E1
:1003800068EC70E080E090E00E9457018CE0CF9133
:100390001F910F910C948901E8E6F0E0C491C7FD2C
:1003A000EFCF61E08CE00E940101CC2319F0C23054
:1003B00009F0A2C09801110F440B550B68E478EEC8
:1003C00081E090E00E946406BA01A9014150510900
:1003D00061097109CC2309F4D0C08091B100887FF4
:1003E00084608093B100C13009F49FC0C23009F429
:1003F000B1C0C111C5CF47BD8FEF9FEFDC01809326
:100400000A0190930B01A0930C01B0930D01809110
:100410006E00826080936E00B3CF8CE08093000109
:10042000E8E6F0E0C491CF3F09F4AACFC13021F152
:1004300050F0C23009F43EC0C7FDA2CF61E08CE0AD
:100440000E940101B4CF14BC15BC84B5826084BD88
:1004500085B5816085BDE3E9F0E0E491F0E0EE0F61
:10046000FF1FED58FF4F85919491E7EAF0E0E4918A
:10047000E0930501C0E095CF1092800010928100BA
:1004800080918100886080938100809181008160EB
:1004900080938100E3E9F0E0E491F0E0EE0FFF1FCC
:1004A000ED58FF4F85919491E7EAF0E0E491E093F5
:1004B000040177CF1092B0001092B1008091B0008B
:1004C00082608093B0008091B10081608093B10020
:1004D000E3E9F0E0E491F0E0EE0FFF1FED58FF4F8D
:1004E0008591949190930F0180930E01E7EAF0E0DB
:1004F000E491E093100155CF9801110F440B550B77
:1005000060E072E18AE790E00E946406BA01A90106
:100510004150510961097109C13009F064CF8091DE
:100520008100887F8160809381005093890040938F
:1005300088008FEF9FEFDC01809306019093070105
:10054000A0930801B093090180916F0082608093AD
:100550006F0016CF4093B3008FEF9FEFDC018093C5
:10056000110190931201A0931301B0931401809193
:10057000700082608093700003CF85B5887F8360B0
:1005800085BD39CF21E02093160183309105C9F054
:1005900044F48130910569F0029781F010921601C0
:1005A00008958430910581F00597C1F784E893E0C0
:1005B00002C084EF91E00E94B501F0CF88E592E09F
:1005C000FACF8CEB92E0F7CF80E293E0F4CF1F9369
:1005D000CF93DF93EC01162F682F617082E00E94A9
:1005E000D300BE0175956795617083E00E94D300CA
:1005F000BE017595679575956795617084E00E9459
:10060000D30023E0D595C7952A95E1F76C2F61704B
:1006100085E00E94D30060E0812F0E94D3008BE927
:100620009FE00197F1F761E0812FDF91CF911F915A
:100630000C94D300CF92DF92EF92FF920F931F930F
:10064000CF93DF937B018A01CAE0D0E0BE010E9414
:1006500050069B016C0166E070E0C9010E94E70250
:1006600067E070E0C6010E94E702C701BE010E9478
:1006700050069B017C0168E070E0C9010E94E7021E
:1006800069E070E0C7010E94E702C801BE010E9454
:1006900050069B01EC016AE070E0C9010E94E7028C
:1006A0006BE070E0CE01DF91CF911F910F91FF9031
:1006B000EF90DF90CF900C94E7021F920F920FB64D
:1006C0000F9211242F933F938F939F93AF93BF93D8
:1006D0008091280190912901A0912A01B0912B01CC
:1006E0003091270123E0230F2D3758F50196A11DE6
:1006F000B11D209327018093280190932901A09395
:100700002A01B0932B0180912C0190912D01A09191
:100710002E01B0912F010196A11DB11D80932C01D6
:1007200090932D01A0932E01B0932F01BF91AF9113
:100730009F918F913F912F910F900FBE0F901F901F
:10074000189526E8230F0296A11DB11DD2CF1F9246
:100750000F920FB60F9211242F933F934F935F93F5
:100760006F937F938F939F93AF93BF93EF93FF9379
:100770008091110190911201A0911301B091140187
:10078000892B8A2B8B2BD1F190911001E0910E01D6
:10079000F0910F01808189278083809111019091D0
:1007A0001201A0911301B0911401181619061A062E
:1007B0001B069CF48091110190911201A0911301EC
:1007C000B09114010197A109B1098093110190938F
:1007D0001201A0931301B0931401FF91EF91BF9107
:1007E000AF919F918F917F916F915F914F913F91C9
:1007F0002F910F900FBE0F901F90189580910001C0
:100800000E948901EACF789484B5826084BD84B562
:10081000816084BD85B5826085BD85B5816085BDFB
:1008200080916E00816080936E00109281008091B3
:10083000810082608093810080918100816080933B
:100840008100809180008160809380008091B10060
:1008500084608093B1008091B00081608093B0008B
:1008600080917A00846080937A0080917A0082601F
:1008700080937A0080917A00816080937A008091E1
:100880007A00806880937A001092C10060E08EE068
:100890000E94010160E08FE00E94010160E080E1C0
:1008A0000E94010160E081E10E94010160E082E1BB
:1008B0000E94010160E083E10E94010161E082E0A9
:1008C0000E94010161E083E00E94010161E084E097
:1008D0000E94010161E085E00E94010161E086E083
:1008E0000E94010161E087E00E94010161E088E06F
:1008F0000E94010161E089E00E94010161E08AE05B
:100900000E94010161E08BE00E94010161E08CE046
:100910000E94010161E08DE00E94010160E08CE035
:100920000E94D30060E08DE00E94D3000CE310E051
:1009300088E1E82EF12C95E0C92ED12C20E0622E22
:1009400020E0722E5524539432E0A32EB12C8EE079
:100950000E94AA00019709F013C168EC70E080E0E2
:1009600090E00E945701B0922201A092210180E103
:100970000E94AA00019791F468EC70E080E090E09A
:100980000E94570180911B0190911C010196B701B3
:100990000E94500690931C0180931B0181E10E94EC
:1009A000AA00019791F468EC70E080E090E00E946A
:1009B000570180911D0190911E010196B8010E947E
:1009C000500690931E0180931D0182E10E94AA00AF
:1009D000019791F468EC70E080E090E00E9457018C
:1009E00080911F01909120010196B8010E9450064C
:1009F0009093200180931F012FB7F89480912801D4
:100A000090912901A0912A01B0912B012FBF409113
:100A10002301509124016091250170912601841BCE
:100A2000950BA60BB70B883E9340A105B10508F4C2
:100A300057C08091210190912201029709F457C07B
:100A40002FB7F8948091280190912901A0912A0153
:100A5000B0912B012FBF8093230190932401A09389
:100A60002501B093260180911F01909120010196EC
:100A70008C3391050CF0D1C09093200180931F011D
:100A800080911501882361F120911B0130911C0197
:100A900080911701909118012817390709F52091C5
:100AA0001D0130911E018091190190911A012817A2
:100AB0003907B1F480911F0190912001892B81F4B5
:100AC00080910101909102010E94C20260ED77E0E5
:100AD00080E090E00E94570160E08CE00E94D3002B
:100AE0008091210190912201009709F0BDC04091B1
:100AF0001F015091200160911D0170911E01809194
:100B00001B0190911C010E941A0383E10E94AA001C
:100B1000019709F0BEC0809116018111BAC068EC3E
:100B200070E080E090E00E94570180910101909177
:100B30000201B6010E945006EC012196D0930201F9
:100B4000C0930101912C812C8C169D060CF09EC047
:100B500061E08DE00E94D30064E670E080E090E008
:100B60000E94570160E08DE00E94D30064E670E0CF
:100B700080E090E00E9457018FEF881A980AE4CF36
:100B80008FE00E94AA00EC010197D9F568EC70E0B3
:100B900080E090E00E945701D0932201C093210190
:100BA00080E10E94AA00019791F468EC70E080E077
:100BB00090E00E94570180911701909118010196D1
:100BC000B7010E945006909318018093170181E1AC
:100BD0000E94AA00019791F468EC70E080E090E038
:100BE0000E9457018091190190911A010196B80154
:100BF0000E94500690931A0180931901509215019A
:100C0000FBCE8091210190912201892B09F4F4CE31
:100C10001092220110922101EFCE10922001109229
:100C20001F0180911D0190911E0101968C33910549
:100C30002CF490931E0180931D0122CF10921E016F
:100C400010921D0180911B0190911C010196883129
:100C500091052CF490931C0180931B0111CF1092ED
:100C60001C0110921B010CCF8130910559F4609149
:100C7000190170911A0150E040E0809117019091A4
:100C8000180141CF029709F040CF31CFCE010E9429
:100C9000C2026114710409F45ACE0E94000057CEBA
:100CA00097FB072E16F4009407D077FD09D00E9419
:100CB000830607FC05D03EF4909581959F4F0895DB
:100CC000709561957F4F0895052E97FB1EF4009453
:100CD0000E947B0657FD07D00E94970607FC03D0B1
:100CE0004EF40C947B0650954095309521953F4FDE
:100CF0004F4F5F4F089590958095709561957F4F08
:100D00008F4F9F4F0895AA1BBB1B51E107C0AA1F1D
:100D1000BB1FA617B70710F0A61BB70B881F991F9C
:100D20005A95A9F780959095BC01CD010895A1E24F
:100D30001A2EAA1BBB1BFD010DC0AA1FBB1FEE1F55
:100D4000FF1FA217B307E407F50720F0A21BB30BA0
:100D5000E40BF50B661F771F881F991F1A9469F71C
:100D600060957095809590959B01AC01BD01CF0178
:0A0D70000895F894FFCFFF01000082
:107E0000112484B714BE81FFF0D085E080938100F7
:107E100082E08093C00088E18093C10086E0809377
:107E2000C20080E18093C4008EE0C9D0259A86E02C
:107E300020E33CEF91E0309385002093840096BBD3
:107E4000B09BFECF1D9AA8958150A9F7CC24DD24C4
:107E500088248394B5E0AB2EA1E19A2EF3E0BF2EE7
:107E6000A2D0813461F49FD0082FAFD0023811F036
:107E7000013811F484E001C083E08DD089C08234E0
:107E800011F484E103C0853419F485E0A6D080C0E4
:107E9000853579F488D0E82EFF2485D0082F10E0AE
:107EA000102F00270E291F29000F111F8ED06801E7
:107EB0006FC0863521F484E090D080E0DECF843638
:107EC00009F040C070D06FD0082F6DD080E0C81688
:107ED00080E7D80618F4F601B7BEE895C0E0D1E017
:107EE00062D089930C17E1F7F0E0CF16F0E7DF06D8
:107EF00018F0F601B7BEE89568D007B600FCFDCFD4
:107F0000A601A0E0B1E02C9130E011968C91119780
:107F100090E0982F8827822B932B1296FA010C0160
:107F200087BEE89511244E5F5F4FF1E0A038BF0790
:107F300051F7F601A7BEE89507B600FCFDCF97BE46
:107F4000E89526C08437B1F42ED02DD0F82E2BD052
:107F50003CD0F601EF2C8F010F5F1F4F84911BD097
:107F6000EA94F801C1F70894C11CD11CFA94CF0C13
:107F7000D11C0EC0853739F428D08EE10CD085E9AC
:107F80000AD08FE07ACF813511F488E018D01DD067
:107F900080E101D065CF982F8091C00085FFFCCF94
:107FA0009093C60008958091C00087FFFCCF809118
:107FB000C00084FD01C0A8958091C6000895E0E648
:107FC000F0E098E1908380830895EDDF803219F02E
:107FD00088E0F5DFFFCF84E1DECF1F93182FE3DFCA
:107FE0001150E9F7F2DF1F91089580E0E8DFEE27F6
:047FF000FF270994CA
:027FFE00040479
:00000001FF
