:100000000C9462000C947F000C947F000C947F0091
:100010000C947F000C947F000C947F000C94890357
:100020000C947F000C947F000C947F000C947F0054
:100030000C947F000C947F000C947F000C947F0044
:100040000C943F030C947F000C947F000C947F0071
:100050000C947F000C947F000C947F000C947F0024
:100060000C947F000C947F00020000000024002705
:10007000002A0000000000250028002B00000000DE
:1000800000230026002900040404040404040402DC
:100090000202020202030303030303010204081025
:1000A00020408001020408102001020408102000F2
:1000B0000000080002010000030407000000000027
:1000C0000000000011241FBECFEFD8E0DEBFCDBF7F
:1000D00011E0A0E0B1E0EEEFFDE002C005900D926E
:1000E000A430B107D9F721E0A4E0B1E001C01D922E
:1000F000A433B207E1F70E94E5030C94FD060C94CB
:100100000000833081F028F4813099F08230A9F02A
:1001100008958730A9F08830C9F08430B1F4809117
:1001200080008F7D03C0809180008F778093800056
:10013000089584B58F7784BD089584B58F7DFBCFF6
:100140008091B0008F778093B00008958091B000C7
:100150008F7DF9CFCF93DF93282F30E0F901E15560
:10016000FF4F8491F901E556FF4FD491F901E9570A
:10017000FF4FC491CC23A1F081110E948100EC2F8C
:10018000F0E0EE0FFF1FE358FF4FA591B491EC9103
:10019000ED2381E090E009F480E0DF91CF910895B4
:1001A00080E090E0FACF1F93CF93DF93282F30E0C9
:1001B000F901E155FF4F8491F901E556FF4FD491C4
:1001C000F901E957FF4FC491CC23A9F0162F8111F3
:1001D0000E948100EC2FF0E0EE0FFF1FED58FF4F63
:1001E000A591B4918FB7F894EC91111108C0D095F6
:1001F000DE23DC938FBFDF91CF911F910895DE2B1B
:10020000F8CFCF93DF9390E0FC01E556FF4F2491A8
:1002100089579F4FFC0184918823D1F090E0880F8B
:10022000991FFC01E759FF4FA591B491FC01ED58CE
:10023000FF4FC591D49161110EC09FB7F8948C9176
:10024000E22FE0958E238C932881E223E8839FBFE1
:10025000DF91CF9108958FB7F894EC91E22BEC9356
:100260008FBFF6CF3FB7F894809130019091310164
:10027000A0913201B091330126B5A89B05C02F3F54
:1002800019F00196A11DB11D3FBFBA2FA92F982FBC
:100290008827BC01CD01620F711D811D911D42E0B7
:1002A000660F771F881F991F4A95D1F708958F927F
:1002B0009F92AF92BF92CF92DF92EF92FF924B014B
:1002C0005C010E9432016B017C010E9432016C19B9
:1002D0007D098E099F09683E734081059105A8F349
:1002E00021E0821A9108A108B10888EEC80E83E0C7
:1002F000D81EE11CF11C81149104A104B10429F75A
:10030000FF90EF90DF90CF90BF90AF909F908F9035
:1003100008952FB7F89460912C0170912D01809170
:100320002E0190912F012FBF089590910001891304
:100330000BC0E8E6F0E0E4919FEF90930001E1301C
:1003400049F028F0E23061F060E00C94D3001092A4
:100350006E00FACF90916F009D7F90936F00F4CF65
:10036000909170009D7F9093700091E09093B00009
:100370009091B100987F94609093B1001092B30077
:10038000E3CF0F931F93CF938C01809100018C30AA
:1003900051F08F3F09F448C061E08CE0CF911F918C
:1003A0000F910C94D300E8E6F0E0C491C7FDF4CFC0
:1003B00061E08CE00E940101CC2319F0C23009F009
:1003C000A2C09801110F440B550B68E478EE81E050
:1003D00090E00E94A806BA01A901415051096109A3
:1003E0007109CC2309F4D0C08091B100887F84606A
:1003F0008093B100C13009F49FC0C23009F4B1C08C
:10040000C111CACF47BD8FEF9FEFDC0180930A0176
:1004100090930B01A0930C01B0930D0180916E009D
:10042000826080936E00B8CF8CE080930001E8E694
:10043000F0E0C491CF3F09F4AFCFC13021F150F0CB
:10044000C23009F43EC0C7FDA7CF61E08CE00E9436
:100450000101B4CF14BC15BC84B5826084BD85B5E0
:10046000816085BDE3E9F0E0E491F0E0EE0FFF1F6D
:10047000ED58FF4F85919491E7EAF0E0E491E09325
:100480000501C0E095CF109280001092810080910C
:1004900081008860809381008091810081608093D9
:1004A0008100E3E9F0E0E491F0E0EE0FFF1FED588A
:1004B000FF4F85919491E7EAF0E0E491E093040125
:1004C00077CF1092B0001092B1008091B00082609E
:1004D0008093B0008091B10081608093B100E3E926
:1004E000F0E0E491F0E0EE0FFF1FED58FF4F859133
:1004F000949190930F0180930E01E7EAF0E0E4916C
:10050000E093100155CF9801110F440B550B60E09B
:1005100072E18AE790E00E94A806BA01A901415061
:10052000510961097109C13009F064CF80918100DE
:10053000887F816080938100509389004093880078
:100540008FEF9FEFDC018093060190930701A0934A
:100550000801B093090180916F00826080936F0061
:100560001BCF4093B3008FEF9FEFDC01809311010D
:1005700090931201A0931301B09314018091700025
:1005800082608093700008CF85B5887F836085BDC9
:1005900039CF1F93CF93DF93EC01162F682F617033
:1005A00082E00E94D300BE0175956795617083E07B
:1005B0000E94D300BE01759567957595679561702A
:1005C00084E00E94D30023E0D595C7952A95E1F7F2
:1005D0006C2F617085E00E94D30060E0812F0E9443
:1005E000D3008BE99FE00197F1F761E0812FDF9164
:1005F000CF911F910C94D300CF92DF92EF92FF9294
:100600000F931F93CF93DF937B018A01CAE0D0E061
:10061000BE010E9494069B016C0166E070E0C90176
:100620000E94C90267E070E0C6010E94C902C701CA
:10063000BE010E9494069B017C0168E070E0C90144
:100640000E94C90269E070E0C7010E94C902C801A6
:10065000BE010E9494069B01EC016AE070E0C901B2
:100660000E94C9026BE070E0CE01DF91CF911F9133
:100670000F91FF90EF90DF90CF900C94C9021F92E2
:100680000F920FB60F9211242F933F938F939F9346
:10069000AF93BF9380912C0190912D01A0912E01D9
:1006A000B0912F0130912B0123E0230F2D3758F506
:1006B0000196A11DB11D20932B0180932C019093D5
:1006C0002D01A0932E01B0932F01809130019091C4
:1006D0003101A0913201B09133010196A11DB11DEC
:1006E0008093300190933101A0933201B093330194
:1006F000BF91AF919F918F913F912F910F900FBE1E
:100700000F901F90189526E8230F0296A11DB11D8A
:10071000D2CF1F920F920FB60F9211242F933F93B7
:100720004F935F936F937F938F939F93AF93BF93F9
:10073000EF93FF938091110190911201A091130109
:10074000B0911401892B8A2B8B2BD1F19091100140
:10075000E0910E01F0910F018081892780838091C3
:10076000110190911201A0911301B091140118167A
:1007700019061A061B069CF4809111019091120132
:10078000A0911301B09114010197A109B1098093BF
:10079000110190931201A0931301B0931401FF91E2
:1007A000EF91BF91AF919F918F917F916F915F91E9
:1007B0004F913F912F910F900FBE0F901F90189562
:1007C000809100010E949501EACF789484B58260FF
:1007D00084BD84B5816084BD85B5826085BD85B5E5
:1007E000816085BD80916E00816080936E00109263
:1007F00081008091810082608093810080918100DE
:10080000816080938100809180008160809380006E
:100810008091B10084608093B1008091B0008160CC
:100820008093B00080917A00846080937A008091F8
:100830007A00826080937A0080917A008160809350
:100840007A0080917A00806880937A001092C100CB
:1008500060E08EE00E94010160E08FE00E940101F3
:1008600060E080E10E94010160E081E10E940101FD
:1008700060E082E10E94010160E083E10E940101E9
:1008800061E082E00E94010161E083E00E940101D9
:1008900061E084E00E94010161E085E00E940101C5
:1008A00061E086E00E94010161E087E00E940101B1
:1008B00061E088E00E94010161E089E00E9401019D
:1008C00061E08AE00E94010161E08BE00E94010189
:1008D00061E08CE00E94010161E08DE00E94010175
:1008E00060E08CE00E94D30060E08DE00E94D300C5
:1008F0000CE310E088E1E82EF12C95E0C92ED12C14
:1009000020E0622E20E0722E5524539432E0A32E74
:10091000B12C8EE00E94AA00019709F040C168EC5A
:1009200070E080E090E00E945701B0922601A09212
:10093000250180E10E94AA00019791F468EC70E023
:1009400080E090E00E94570180911F01909120016A
:100950000196B7010E9494069093200180931F0195
:1009600081E10E94AA00019791F468EC70E080E0B8
:1009700090E00E94570180912101909122010196FF
:10098000B8010E949406909322018093210182E194
:100990000E94AA00019791F468EC70E080E090E07A
:1009A0000E94570180912301909124010196B80182
:1009B0000E94940690932401809323010E94890150
:1009C000C0912501D0912601209127013091280165
:1009D0004091290150912A01621B730B840B950BE6
:1009E000683E73408105910508F445C0C230D105C9
:1009F00009F444C00E948901609327017093280183
:100A00008093290190932A018091230190912401E0
:100A100001968C3391050CF00FC1909324018093C3
:100A2000230180911501882331F120911F0130911C
:100A3000200180911B0190911C0128173907D9F4DE
:100A4000209121013091220180911D0190911E0180
:100A50002817390781F480911A0181110CC0509236
:100A60001A010E9489016093160170931701809307
:100A7000180190931901209709F005C140912301B5
:100A800050912401609121017091220180911F01F8
:100A9000909120010E94FC0280911A01882309F4A0
:100AA00043C00E94890120911601309117014091A5
:100AB000180150911901621B730B840B950B603662
:100AC0007A4E8105910508F10E9489016093160113
:100AD0007093170180931801909319018CE00E9484
:100AE000AA00892B09F0F8C08091010190910201C0
:100AF0008330910509F4EAC00CF0D7C0813091052C
:100B000009F4DCC0029709F4DEC08EE00E94AA005E
:100B1000019709F0E9C010921A018CE00E9495013A
:100B200060E08CE00E94D30083E10E94AA0001975C
:100B300009F0F3C080911A018111EFC068EC70E0F8
:100B400080E090E00E9457018091010190910201A4
:100B5000B6010E949406EC012196D0930201C09345
:100B60000101912C812C8C169D060CF0D6C061E001
:100B70008DE00E94D30064E670E080E090E00E9487
:100B8000570160E08DE00E94D30064E670E080E0F1
:100B900090E00E9457018FEF881A980AE4CF8FE007
:100BA0000E94AA00EC010197D9F568EC70E080E0A2
:100BB00090E00E945701D0932601C093250180E167
:100BC0000E94AA00019791F468EC70E080E090E048
:100BD0000E94570180911B0190911C010196B70161
:100BE0000E94940690931C0180931B0181E10E9456
:100BF000AA00019791F468EC70E080E090E00E9418
:100C0000570180911D0190911E010196B8010E942B
:100C1000940690931E0180931D0150921501CECE33
:100C20008091250190912601892B09F4C7CE10925D
:100C3000260110922501C2CE1092240110922301A8
:100C4000809121019091220101968C3391052CF421
:100C50009093220180932101E4CE10922201109200
:100C6000210180911F019091200101968831910509
:100C70002CF49093200180931F01D3CE1092200179
:100C800010921F01CECEC130D10559F460911D01E3
:100C900070911E0150E040E080911B0190911C0179
:100CA000F9CE229709F0F8CEE9CE8430910589F08B
:100CB000059709F02ACF84E893E002C084EF91E021
:100CC0000E94C10122CF88E592E0FACF8CEB92E03E
:100CD000F7CF80E293E0F4CF8CE00E94950160E0D2
:100CE0008CE00E94D30011CF8FE00E94AA000197F0
:100CF00009F411CF80E10E94AA00019709F40BCFFB
:100D000081E10E94AA00019709F405CF82E10E94C7
:100D1000AA00019709F008CFFECE6114710409F40E
:100D2000F8CD0E940000F5CD97FB072E16F4009435
:100D300007D077FD09D00E94C70607FC05D03EF416
:100D4000909581959F4F0895709561957F4F089577
:100D5000052E97FB1EF400940E94BF0657FD07D096
:100D60000E94DB0607FC03D04EF40C94BF0650959E
:100D70004095309521953F4F4F4F5F4F0895909587
:100D80008095709561957F4F8F4F9F4F0895AA1B57
:100D9000BB1B51E107C0AA1FBB1FA617B70710F066
:100DA000A61BB70B881F991F5A95A9F78095909598
:100DB000BC01CD010895A1E21A2EAA1BBB1BFD01A7
:100DC0000DC0AA1FBB1FEE1FFF1FA217B307E4072A
:100DD000F50720F0A21BB30BE40BF50B661F771F82
:100DE000881F991F1A9469F7609570958095909562
:0E0DF0009B01AC01BD01CF010895F894FFCF27
:040DFE00FF010000F1
:00000001FF
