:100000000C9461000C9473000C9473000C947300B6
:100010000C9473000C9473000C9473000C94730094
:100020000C9473000C9473000C9473000C94730084
:100030000C9473000C9473000C9473000C94730074
:100040000C94B3010C9473000C9473000C94730023
:100050000C9473000C9473000C9473000C94730054
:100060000C9473000C94730000000000240027001F
:100070002A0000000000250028002B0000000000DE
:1000800023002600290004040404040404040202DA
:100090000202020203030303030301020408102007
:1000A0004080010204081020010204081020000012
:1000B0000008000201000003040700000000000027
:1000C000000011241FBECFEFD8E0DEBFCDBF21E07E
:1000D000A0E0B1E001C01D92A331B207E1F70E9498
:1000E000FD010C94A7030C940000833081F028F4E8
:1000F000813099F08230A9F008958730A9F08830D6
:10010000C9F08430B1F4809180008F7D03C080916C
:1001100080008F7780938000089584B58F7784BDA9
:10012000089584B58F7DFBCF8091B0008F77809349
:10013000B00008958091B0008F7DF9CFCF93DF9309
:10014000282F30E0F901E255FF4F8491F901E6567E
:10015000FF4FD491F901EA57FF4FC491CC23A1F08E
:1001600081110E947500EC2FF0E0EE0FFF1FE458A4
:10017000FF4FA591B491EC91ED2381E090E009F45B
:1001800080E0DF91CF91089580E090E0FACF1F9357
:10019000CF93DF93282F30E0F901E255FF4F849190
:1001A000F901E656FF4FD491F901EA57FF4FC49188
:1001B000CC23A9F0162F81110E947500EC2FF0E0DE
:1001C000EE0FFF1FEE58FF4FA591B4918FB7F89433
:1001D000EC91111108C0D095DE23DC938FBFDF9125
:1001E000CF911F910895DE2BF8CFCF93DF9390E04E
:1001F000FC01E656FF4F24918A579F4FFC018491E2
:100200008823D1F090E0880F991FFC01E859FF4F37
:10021000A591B491FC01EE58FF4FC591D4916111A5
:100220000EC09FB7F8948C91E22FE0958E238C93AB
:100230002881E223E8839FBFDF91CF9108958FB794
:10024000F894EC91E22BEC938FBFF6CF3FB7F89484
:1002500080910F0190911001A0911101B0911201B4
:1002600026B5A89B05C02F3F19F00196A11DB11D11
:100270003FBFBA2FA92F982F8827BC01CD01620F4D
:10028000711D811D911D42E0660F771F881F991F08
:100290004A95D1F708958F929F92AF92BF92CF92D5
:1002A000DF92EF92FF920E9426014B015C0188ECE5
:1002B000C82ED12CE12CF12C0E9426016819790955
:1002C0008A099B09683E734081059105A8F321E0E6
:1002D000C21AD108E108F10888EE880E83E0981E62
:1002E000A11CB11CC114D104E104F10429F7FF9051
:1002F000EF90DF90CF90BF90AF909F908F90089538
:100300001F93CF93DF93EC01162F682F617082E06B
:100310000E94C700BE0175956795617083E00E94D9
:10032000C700BE017595679575956795617084E006
:100330000E94C70023E0D595C7952A95E1F76C2F59
:10034000617085E00E94C70060E0812F0E94C700B5
:100350008BE99FE00197F1F761E0812FDF91CF9169
:100360001F910C94C7001F920F920FB60F92112489
:100370002F933F938F939F93AF93BF9380910B01E4
:1003800090910C01A0910D01B0910E0130910A01E4
:1003900023E0230F2D3758F50196A11DB11D2093A1
:1003A0000A0180930B0190930C01A0930D01B0936F
:1003B0000E0180910F0190911001A0911101B09157
:1003C00012010196A11DB11D80930F0190931001A0
:1003D000A0931101B0931201BF91AF919F918F91A2
:1003E0003F912F910F900FBE0F901F90189526E808
:1003F000230F0296A11DB11DD2CF789484B58260DF
:1004000084BD84B5816084BD85B5826085BD85B5B8
:10041000816085BD80916E00816080936E00109236
:1004200081008091810082608093810080918100B1
:100430008160809381008091800081608093800042
:100440008091B10084608093B1008091B0008160A0
:100450008093B00080917A00846080937A008091CC
:100460007A00826080937A0080917A008160809324
:100470007A0080917A00806880937A001092C1009F
:1004800060E08EE00E94F50060E080E10E94F500EF
:1004900060E081E10E94F50060E082E10E94F500E9
:1004A00061E082E00E94F50061E083E00E94F500D7
:1004B00061E084E00E94F50061E085E00E94F500C3
:1004C00061E086E00E94F50061E087E00E94F500AF
:1004D00061E088E00E94F50061E089E00E94F5009B
:1004E00061E08AE00E94F50061E08BE00E94F50087
:1004F00061E086E00E94C70061E087E00E94C700DB
:1005000061E088E00E94C70061E089E00E94C700C6
:1005100061E08AE00E94C70061E08BE00E94C700B2
:100520000CE310E088E1882E912CCAE0D0E090E046
:10053000692E90E0792E8EE00E949E000197D9F5F9
:100540000E944B0180E10E949E00019771F40E947D
:100550004B0180910001909101010196B4010E942C
:100560007F03909301018093000181E10E949E002E
:10057000019771F40E944B01809102019091030157
:100580000196B8010E947F039093030180930201BA
:1005900082E10E949E00019771F40E944B018091BC
:1005A0000401909105010196B8010E947F03909388
:1005B0000501809304012FB7F89480910B0190916D
:1005C0000C01A0910D01B0910E012FBF40910601C9
:1005D000509107016091080170910901841B950BEE
:1005E000A60BB70B883E9340A105B10500F12FB7CC
:1005F000F89480910B0190910C01A0910D01B091A4
:100600000E012FBF8093060190930701A09308016C
:10061000B0930901809104019091050101968C33FA
:1006200091050CF046C09093050180930401E09081
:100630000401F0900501C0900201D0900301809167
:10064000000190910101BE010E947F039B015C01AA
:1006500066E070E0C9010E94800167E070E0C501BA
:100660000E948001C601BE010E947F039B016C01B4
:1006700068E070E0C9010E94800169E070E0C60195
:100680000E948001C701BE010E947F039B017C0183
:100690006AE070E0C9010E9480016BE070E0C70170
:1006A0000E9480016114710409F445CF0E9400008A
:1006B00042CF1092050110920401809102019091A5
:1006C000030101969093030180930201CC970CF4EF
:1006D000AECF809100019091010110920301109220
:1006E00002010196883191052CF4909301018093C9
:1006F00000019DCF109201011092000198CF97FB4D
:10070000072E16F4009407D077FD09D00E949303BA
:1007100007FC05D03EF4909581959F4F0895709504
:1007200061957F4F0895AA1BBB1B51E107C0AA1F0B
:10073000BB1FA617B70710F0A61BB70B881F991F82
:100740005A95A9F780959095BC01CD010895F8942C
:02075000FFCFD9
:00000001FF
