:100000000C9461000C9473000C9473000C947300B6
:100010000C9473000C9473000C9473000C94730094
:100020000C9473000C9473000C9473000C94730084
:100030000C9473000C9473000C9473000C94730074
:100040000C94B0010C9473000C9473000C94730026
:100050000C9473000C9473000C9473000C94730054
:100060000C9473000C94730000000000240027001F
:100070002A0000000000250028002B0000000000DE
:1000800023002600290004040404040404040202DA
:100090000202020203030303030301020408102007
:1000A0004080010204081020010204081020000012
:1000B0000008000201000003040700000000000027
:1000C000000011241FBECFEFD8E0DEBFCDBF21E07E
:1000D000A0E0B1E001C01D92AA31B207E1F70E9491
:1000E000FA010C9450040C940000833081F028F441
:1000F000813099F08230A9F008958730A9F08830D6
:10010000C9F08430B1F4809180008F7D03C080916C
:1001100080008F7780938000089584B58F7784BDA9
:10012000089584B58F7DFBCF8091B0008F77809349
:10013000B00008958091B0008F7DF9CFCF93DF9309
:10014000282F30E0F901E255FF4F8491F901E6567E
:10015000FF4FD491F901EA57FF4FC491CC23A1F08E
:1001600081110E947500EC2FF0E0EE0FFF1FE458A4
:10017000FF4FA591B491EC91ED2381E090E009F45B
:1001800080E0DF91CF91089580E090E0FACF1F9357
:10019000CF93DF93282F30E0F901E255FF4F849190
:1001A000F901E656FF4FD491F901EA57FF4FC49188
:1001B000CC23A9F0162F81110E947500EC2FF0E0DE
:1001C000EE0FFF1FEE58FF4FA591B4918FB7F89433
:1001D000EC91111108C0D095DE23DC938FBFDF9125
:1001E000CF911F910895DE2BF8CFCF93DF9390E04E
:1001F000FC01E656FF4F24918A579F4FFC018491E2
:100200008823D1F090E0880F991FFC01E859FF4F37
:10021000A591B491FC01EE58FF4FC591D4916111A5
:100220000EC09FB7F8948C91E22FE0958E238C93AB
:100230002881E223E8839FBFDF91CF9108958FB794
:10024000F894EC91E22BEC938FBFF6CF3FB7F89484
:100250008091160190911701A0911801B091190198
:1002600026B5A89B05C02F3F19F00196A11DB11D11
:100270003FBFBA2FA92F982F8827BC01CD01620F4D
:10028000711D811D911D42E0660F771F881F991F08
:100290004A95D1F708958F929F92AF92BF92CF92D5
:1002A000DF92EF92FF924B015C010E9426016B01ED
:1002B0007C010E9426016C197D098E099F09683E08
:1002C000734081059105A8F321E0821A9108A108E5
:1002D000B10888EEC80E83E0D81EE11CF11C811421
:1002E0009104A104B10429F7FF90EF90DF90CF9023
:1002F000BF90AF909F908F9008951F93CF93DF93FF
:10030000EC01162F682F617082E00E94C700BE01C9
:1003100075956795617083E00E94C700BE01759571
:10032000679575956795617084E00E94C70023E02A
:10033000D595C7952A95E1F76C2F617085E00E94ED
:10034000C70060E0812F0E94C7008BE99FE0019702
:10035000F1F761E0812FDF91CF911F910C94C700DD
:100360001F920F920FB60F9211242F933F938F93EA
:100370009F93AF93BF938091120190911301A0912D
:100380001401B09115013091110123E0230F2D3795
:1003900058F50196A11DB11D209311018093120102
:1003A00090931301A0931401B0931501809116014D
:1003B00090911701A0911801B09119010196A11D0A
:1003C000B11D8093160190931701A0931801B0936B
:1003D0001901BF91AF919F918F913F912F910F90F4
:1003E0000FBE0F901F90189526E8230F0296A11DAF
:1003F000B11DD2CF789484B5826084BD84B581600C
:1004000084BD85B5826085BD85B5816085BD8091DF
:100410006E00816080936E00109281008091810057
:10042000826080938100809181008160809381004F
:10043000809180008160809380008091B100846011
:100440008093B1008091B00081608093B000809172
:100450007A00846080937A0080917A008260809331
:100460007A0080917A00816080937A0080917A008E
:10047000806880937A001092C10060E08EE00E9454
:10048000F50060E08FE00E94F50060E080E10E94EE
:10049000F50060E081E10E94F50060E082E10E94E9
:1004A000F50061E082E00E94F50061E083E00E94D7
:1004B000F50061E084E00E94F50061E085E00E94C3
:1004C000F50061E086E00E94F50061E087E00E94AF
:1004D000F50061E088E00E94F50061E089E00E949B
:1004E000F50061E08AE00E94F50061E08BE00E9487
:1004F000F50061E086E00E94C70061E087E00E94AD
:10050000C70061E088E00E94C70061E089E00E94C6
:10051000C70061E08AE00E94C70061E08BE00E94B2
:10052000C70061E08CE00E94F50060E08CE00E9472
:10053000C700CCE3D0E088E1C82ED12C0AE010E05F
:1005400090E0692E90E0792E552453948EE00E941D
:100550009E00019709F04BC068EC70E080E090E0ED
:100560000E944B0180E10E949E00019791F468EC8B
:1005700070E080E090E00E944B0180910701909133
:1005800008010196B6010E94280490930801809307
:10059000070181E10E949E00019791F468EC70E0F0
:1005A00080E090E00E944B018091090190910A0146
:1005B0000196BE010E94280490930A0180930901CC
:1005C00082E10E949E00019791F468EC70E080E067
:1005D00090E00E944B0180910B0190910C010196DB
:1005E000BE010E94280490930C0180930B018FE0C0
:1005F0000E949E007C01019709F0F8C068EC70E051
:1006000080E090E00E944B01F0920601E09205012B
:1006100080E10E949E00019791F468EC70E080E018
:1006200090E00E944B01809103019091040101969A
:10063000BE010E942804909304018093030181E18C
:100640000E949E00019791F468EC70E080E090E0D9
:100650000E944B0180910101909102010196BE011F
:100660000E9428049093020180930101509200019E
:100670002FB7F8948091120190911301A091140169
:10068000B09115012FBF40910D0150910E01609165
:100690000F0170911001841B950BA60BB70B883EC0
:1006A0009340A105B10508F44EC02FB7F89480918E
:1006B000120190911301A0911401B09115012FBF67
:1006C00080930D0190930E01A0930F01B093100140
:1006D00080910B0190910C0101968C3391050CF0E7
:1006E00091C090930C0180930B01809100018823AD
:1006F00051F1209103013091040180910701909103
:10070000080128173907F9F42091090130910A01ED
:10071000809101019091020128173907A1F480917D
:100720000B0190910C01892B71F461E08CE00E9427
:10073000C70060ED77E080E090E00E944B0160E050
:100740008CE00E94C700E0900B01F0900C018090BB
:10075000090190900A018091070190910801209170
:100760000501309106012130310551F480910301DA
:10077000909104018090010190900201F12CE12CF4
:10078000B8010E9428049B015C0166E070E0C90189
:100790000E947D0167E070E0C5010E947D01C401F7
:1007A000B8010E9428049B015C0168E070E0C90167
:1007B0000E947D0169E070E0C5010E947D01C701D2
:1007C000B8010E9428049B017C016AE070E0C90125
:1007D0000E947D016BE070E0C7010E947D01611401
:1007E000710409F4B3CE0E940000B0CE80910501DF
:1007F00090910601019709F03BCF109206011092EB
:10080000050136CF10920C0110920B018091090165
:1008100090910A01019690930A0180930901CC9767
:100820000CF463CF809107019091080110920A01A6
:10083000109209010196883191052CF490930801DA
:100840008093070152CF10920801109207014DCFFB
:1008500097FB072E16F4009407D077FD09D00E946D
:100860003C0407FC05D03EF4909581959F4F089578
:10087000709561957F4F0895AA1BBB1B51E107C07E
:10088000AA1FBB1FA617B70710F0A61BB70B881F20
:10089000991F5A95A9F780959095BC01CD010895AF
:0408A000F894FFCFFA
:00000001FF
