:020000040000FA
:100000000C9462000C947F000C947F000C947F0091
:100010000C947F000C947F000C947F000C94A80338
:100020000C947F000C947F000C947F000C947F0054
:100030000C947F000C947F000C947F000C947F0044
:100040000C945E030C947F000C947F000C947F0052
:100050000C947F000C947F000C947F000C947F0024
:100060000C947F000C947F00000000002400270007
:100070002A000000000023002600290000000008DC
:10008000000201000003040700000000000000005F
:10009000010204081020408001020408102001021F
:1000A0000408102000000000250028002B00040494
:1000B0000404040404040202020202020303030310
:1000C0000303020011241FBECFEFD8E0DEBFCDBF77
:1000D00011E0A0E0B1E0E0E6FEE002C005900D9284
:1000E000A430B107D9F721E0A4E0B1E001C01D922E
:1000F000A633B207E1F70E9404040C942E070C9477
:100100000000833081F028F4813099F08230A9F02A
:1001100008958730A9F08830C9F08430B1F4809117
:1001200080008F7D03C0809180008F778093800056
:10013000089584B58F7784BD089584B58F7DFBCFF6
:100140008091B0008F778093B00008958091B000C7
:100150008F7DF9CFCF93DF93282F30E0F901E4585A
:10016000FF4F8491F901E057FF4FD491F901E25517
:10017000FF4FC491CC23A1F081110E948100EC2F8C
:10018000F0E0EE0FFF1FEE58FF4FA591B491EC91F8
:10019000ED2381E090E009F480E0DF91CF910895B4
:1001A00080E090E0FACF1F93CF93DF93282F30E0C9
:1001B000F901E458FF4F8491F901E057FF4FD491C2
:1001C000F901E255FF4FC491CC23A9F0162F8111FC
:1001D0000E948100EC2FF0E0EE0FFF1FEC55FF4F67
:1001E000A591B4918FB7F894EC91111108C0D095F6
:1001F000DE23DC938FBFDF91CF911F910895DE2B1B
:10020000F8CFCF93DF9390E0FC01E057FF4F2491AC
:1002100082559F4FFC0184918823D1F090E0880F94
:10022000991FFC01E859FF4FA591B491FC01EC55D1
:10023000FF4FC591D49161110EC09FB7F8948C9176
:10024000E22FE0958E238C932881E223E8839FBFE1
:10025000DF91CF9108958FB7F894EC91E22BEC9356
:100260008FBFF6CF0F931F93CF938C018091020124
:100270008C3039F08F3F09F444C0CF911F910F911A
:100280000895E2ECF0E0C491C7FDF7CF61E08CE0A7
:100290000E940101CC2319F0C23009F0A1C09801DD
:1002A00050E040E068E478EE81E090E00E94D906FA
:1002B000BA01A9014150510961097109CC2309F41E
:1002C000CFC08091B100887F84608093B100C1303D
:1002D00009F49EC0C23009F4B0C0C111CECF47BDF1
:1002E0008FEF9FEFDC018093320190933301A09355
:1002F0003401B093350180916E00826080936E006E
:10030000BCCF8CE080930201E2ECF0E0C491CF3FDF
:1003100009F4B3CFC13021F150F0C23009F43EC02E
:10032000C7FDABCF61E08CE00E940101B5CF14BCEA
:1003300015BC84B5826084BD85B5816085BDEAEB5E
:10034000F0E0E491F0E0EE0FFF1FEC55FF4F8591D8
:100350009491ECE9F0E0E491E0932901C0E096CFBC
:1003600010928000109281008091810088608093BB
:10037000810080918100816080938100EAEBF0E050
:10038000E491F0E0EE0FFF1FEC55FF4F8591949143
:10039000ECE9F0E0E491E093280178CF1092B0000E
:1003A0001092B1008091B00082608093B000809183
:1003B000B10081608093B100EAEBF0E0E491F0E0FD
:1003C000EE0FFF1FEC55FF4F8591949190932701FD
:1003D00080932601ECE9F0E0E491E093250156CF0B
:1003E000980150E040E060E072E18AE790E00E940E
:1003F000D906BA01A9014150510961097109C130F9
:1004000009F065CF80918100887F816080938100B1
:1004100050938900409388008FEF9FEFDC01809319
:100420002E0190932F01A0933001B0933101809160
:100430006F00826080936F0020CF4093B3008FEFF6
:100440009FEFDC0180932A0190932B01A0932C0154
:10045000B0932D01809170008260809370000DCF69
:1004600085B5887F836085BD3ACF3FB7F89480918A
:10047000210190912201A0912301B091240126B580
:10048000A89B05C02F3F19F00196A11DB11D3FBFCC
:10049000BA2FA92F982F8827BC01CD01620F711D9B
:1004A000811D911D42E0660F771F881F991F4A9595
:1004B000D1F708958F929F92AF92BF92CF92DF9221
:1004C000EF92FF924B015C010E9435026B017C01AF
:1004D0000E9435026C197D098E099F09683E7340A0
:1004E00081059105A8F321E0821A9108A108B108BD
:1004F00088EEC80E83E0D81EE11CF11C8114910423
:10050000A104B10429F7FF90EF90DF90CF90BF9046
:10051000AF909F908F9008952FB7F89460911D0130
:1005200070911E0180911F01909120012FBF0895AD
:100530009091020189130BC0E2ECF0E0E4919FEF8F
:1005400090930201E13049F028F0E23061F060E080
:100550000C94D30010926E00FACF90916F009D7FA3
:1005600090936F00F4CF909170009D7F90937000F6
:1005700091E09093B0009091B100987F9460909337
:10058000B1001092B300E3CF80910001909101017E
:1005900083309105A1F034F48130910549F0029740
:1005A00059F008958430910569F0059771F0089528
:1005B00084EF91E00C94320188E592E0FBCF8CEB64
:1005C00092E0F8CF80E293E0F5CF84E893E0F2CFB9
:1005D0001F93CF93DF93EC01162F682F617082E099
:1005E0000E94D300BE0175956795617083E00E94FB
:1005F000D300BE017595679575956795617084E028
:100600000E94D30023E0D595C7952A95E1F76C2F7A
:10061000617085E00E94D30060E0812F0E94D300CA
:100620008BE99FE00197F1F761E0812FDF91CF9196
:100630001F910C94D300CF92DF92EF92FF920F9311
:100640001F93CF93DF937B018A01CAE0D0E0BE0104
:100650000E94C5069B016C0166E070E0C9010E9422
:10066000E80267E070E0C6010E94E802C701BE012F
:100670000E94C5069B017C0168E070E0C9010E94F0
:10068000E80269E070E0C7010E94E802C801BE010B
:100690000E94C5069B01EC016AE070E0C9010E945E
:1006A000E8026BE070E0CE01DF91CF911F910F91D6
:1006B000FF90EF90DF90CF900C94E8021F920F9282
:1006C0000FB60F9211242F933F938F939F93AF9365
:1006D000BF9380911D0190911E01A0911F01B091C7
:1006E000200130911C0123E0230F2D3758F501968E
:1006F000A11DB11D20931C0180931D0190931E012B
:10070000A0931F01B09320018091210190912201BB
:10071000A0912301B09124010196A11DB11D8093E8
:10072000210190932201A0932301B0932401BF9152
:10073000AF919F918F913F912F910F900FBE0F908E
:100740001F90189526E8230F0296A11DB11DD2CF48
:100750001F920F920FB60F9211242F933F934F9336
:100760005F936F937F938F939F93AF93BF93EF9319
:10077000FF9380912A0190912B01A0912C01B091BF
:100780002D01892B8A2B8B2BD1F190912501E091A2
:100790002601F091270180818927808380912A0199
:1007A00090912B01A0912C01B0912D0118161906E2
:1007B0001A061B069CF480912A0190912B01A091AE
:1007C0002C01B0912D010197A109B10980932A0153
:1007D00090932B01A0932C01B0932D01FF91EF91E9
:1007E000BF91AF919F918F917F916F915F914F9149
:1007F0003F912F910F900FBE0F901F9018958091F1
:1008000002010E949802EACF789484B5826084BD88
:1008100084B5816084BD85B5826085BD85B5816004
:1008200085BD80916E00816080936E001092810082
:10083000809181008260809381008091810081603D
:1008400080938100809180008160809380008091FE
:10085000B10084608093B1008091B000816080938A
:10086000B00080917A00846080937A0080917A0051
:10087000826080937A0080917A00816080937A0010
:1008800080917A00806880937A001092C10060E0C5
:100890008EE00E94010160E08FE00E94010160E0B3
:1008A00080E10E94010160E081E10E94010160E0BD
:1008B00082E10E94010160E083E10E94010161E0A8
:1008C00082E00E94010161E083E00E94010161E099
:1008D00084E00E94010161E085E00E94010161E085
:1008E00086E00E94010161E087E00E94010161E071
:1008F00088E00E94010161E089E00E94010161E05D
:100900008AE00E94010161E08BE00E94010161E048
:100910008CE00E94010161E08DE00E94010160E035
:100920008CE00E94D30060E08DE00E94D3000CE3D5
:1009300010E088E1E82EF12C95E0C92ED12C20E0C2
:10094000422E20E0522E32E0A32EB12C7724739455
:100950008FE00E94AA00EC01019709F04EC180913E
:10096000160190911701029709F447C168EC70E0F5
:1009700080E090E00E945A02D0931701C0931601C4
:1009800080E10E94AA00019791F468EC70E080E099
:1009900090E00E945A0280910C0190910D01019605
:1009A000B7010E94C50690930D0180930C0181E16F
:1009B0000E94AA00019791F468EC70E080E090E05A
:1009C0000E945A0280910E0190910F010196B80188
:1009D0000E94C50690930F0180930E01709204014E
:1009E0000E948C02C0911601D0911701209118012C
:1009F0003091190140911A0150911B01621B730B38
:100A0000840B950B683E73408105910508F46FC017
:100A1000C230D10509F46EC00E948C0260931801A7
:100A20007093190180931A0190931B018091140116
:100A30009091150101969093150180931401CC9724
:100A4000B4F0809110019091110110921501109253
:100A5000140120911201309113012F5F3F4F2C336D
:100A600031050CF037C1309313012093120120910E
:100A70000C0130910D018091100190911101409174
:100A80000401442309F438C12817390709F038C193
:100A9000209112013091130180910E0190910F016C
:100AA00028173907C1F480910B01811114C080917E
:100AB0000501811110C070920B010E948C0260939D
:100AC0000701709308018093090190930A010E9425
:100AD000C40270920601209112013091130180919D
:100AE0000E0190910F012817390709F009C12097CD
:100AF00009F009C140911401509115016091120152
:100B00007091130180911001909111010E941B03BB
:100B100080910B018823B1F10E948C022091070182
:100B2000309108014091090150910A01621B730B39
:100B3000840B950B683E734081059105A0F00E94DF
:100B40008C026093070170930801809309019093D0
:100B50000A0180910601882309F4E7C08CE00E9415
:100B60009802109206018EE00E94AA00019709F0F7
:100B7000E1C010920B01709205018CE00E94980276
:100B80001092060183E10E94AA00019709F0F6C0C5
:100B900080910B018111F2C068EC70E080E090E080
:100BA0000E945A028091000190910101B6010E94B9
:100BB000C506EC012196D0930101C0930001912C50
:100BC000812C8C169D060CF0CEC061E08DE00E9459
:100BD000D30064E670E080E090E00E945A0260E09A
:100BE0008DE00E94D30064E670E080E090E00E9417
:100BF0005A028FEF881A980AE4CF8EE00E94AA006A
:100C0000019789F08EE00E94AA00892B09F0E8CEB6
:100C10008FE00E94AA00892B09F0E2CE1092170102
:100C200010921601DDCE8091160190911701019767
:100C300049F368EC70E080E090E00E945A02B092C4
:100C40001701A092160180E10E94AA00019791F479
:100C500068EC70E080E090E00E945A028091100100
:100C6000909111010196B7010E94C5069093110160
:100C70008093100181E10E94AA00019791F468EC31
:100C800070E080E090E00E945A0280911201909101
:100C900013010196B8010E94C50690931301809339
:100CA000120182E10E94AA00019709F099CE68EC36
:100CB00070E080E090E00E945A02809114019091CF
:100CC00015010196B8010E94C50690931501809305
:100CD000140186CE109213011092120101968831F0
:100CE00091052CF49093110180931001C0CE1092C5
:100CF000110110921001BBCE2817390709F4EBCE71
:100D000010920501F4CEC130D10559F460910E0165
:100D100070910F0150E040E080910C0190910D0125
:100D2000F5CE229709F0F4CEE5CE0E94C40270926F
:100D3000060119CF8FE00E94AA00019709F419CF8C
:100D400080E10E94AA00019709F413CF81E10E947B
:100D5000AA00019709F40DCF82E10E94AA00019731
:100D600009F010CF06CF0E94C40268EC70E080E06A
:100D700090E00E945A028CE00E94980241145104B3
:100D800009F4E6CD0E940000E3CD97FB072E16F490
:100D9000009407D077FD09D00E94F80607FC05D023
:100DA0003EF4909581959F4F0895709561957F4F82
:100DB0000895052E97FB1EF400940E94F00657FD3F
:100DC00007D00E940C0707FC03D04EF40C94F006E9
:100DD00050954095309521953F4F4F4F5F4F089567
:100DE00090958095709561957F4F8F4F9F4F089597
:100DF000AA1BBB1B51E107C0AA1FBB1FA617B70741
:100E000010F0A61BB70B881F991F5A95A9F780955C
:100E10009095BC01CD010895A1E21A2EAA1BBB1B1F
:100E2000FD010DC0AA1FBB1FEE1FFF1FA217B307B6
:100E3000E407F50720F0A21BB30BE40BF50B661FCC
:100E4000771F881F991F1A9469F760957095809590
:100E500090959B01AC01BD01CF010895F894FFCF9F
:040E60000100FF008E
:107E0000112484B714BE81FFF0D085E080938100F7
:107E100082E08093C00088E18093C10086E0809377
:107E2000C20080E18093C4008EE0C9D0259A86E02C
:107E300020E33CEF91E0309385002093840096BBD3
:107E4000B09BFECF1D9AA8958150A9F7CC24DD24C4
:107E500088248394B5E0AB2EA1E19A2EF3E0BF2EE7
:107E6000A2D0813461F49FD0082FAFD0023811F036
:107E7000013811F484E001C083E08DD089C08234E0
:107E800011F484E103C0853419F485E0A6D080C0E4
:107E9000853579F488D0E82EFF2485D0082F10E0AE
:107EA000102F00270E291F29000F111F8ED06801E7
:107EB0006FC0863521F484E090D080E0DECF843638
:107EC00009F040C070D06FD0082F6DD080E0C81688
:107ED00080E7D80618F4F601B7BEE895C0E0D1E017
:107EE00062D089930C17E1F7F0E0CF16F0E7DF06D8
:107EF00018F0F601B7BEE89568D007B600FCFDCFD4
:107F0000A601A0E0B1E02C9130E011968C91119780
:107F100090E0982F8827822B932B1296FA010C0160
:107F200087BEE89511244E5F5F4FF1E0A038BF0790
:107F300051F7F601A7BEE89507B600FCFDCF97BE46
:107F4000E89526C08437B1F42ED02DD0F82E2BD052
:107F50003CD0F601EF2C8F010F5F1F4F84911BD097
:107F6000EA94F801C1F70894C11CD11CFA94CF0C13
:107F7000D11C0EC0853739F428D08EE10CD085E9AC
:107F80000AD08FE07ACF813511F488E018D01DD067
:107F900080E101D065CF982F8091C00085FFFCCF94
:107FA0009093C60008958091C00087FFFCCF809118
:107FB000C00084FD01C0A8958091C6000895E0E648
:107FC000F0E098E1908380830895EDDF803219F02E
:107FD00088E0F5DFFFCF84E1DECF1F93182FE3DFCA
:107FE0001150E9F7F2DF1F91089580E0E8DFEE27F6
:047FF000FF270994CA
:027FFE00040479
:00000001FF
