:020000040000FA
:100000000C9462000C947F000C947F000C947F0091
:100010000C947F000C947F000C947F000C94A1033F
:100020000C947F000C947F000C947F000C947F0054
:100030000C947F000C947F000C947F000C947F0044
:100040000C9457030C947F000C947F000C947F0059
:100050000C947F000C947F000C947F000C947F0024
:100060000C947F000C947F00000000002400270007
:100070002A000000000023002600290000000008DC
:10008000000201000003040700000000000000005F
:10009000010204081020408001020408102001021F
:1000A0000408102000000000250028002B00040494
:1000B0000404040404040202020202020303030310
:1000C0000303020011241FBECFEFD8E0DEBFCDBF77
:1000D00011E0A0E0B1E0EEE4FDE002C005900D9279
:1000E000A430B107D9F721E0A4E0B1E001C01D922E
:1000F000AE32B207E1F70E94FD030C94A5060C9402
:100100000000833081F028F4813099F08230A9F02A
:1001100008958730A9F08830C9F08430B1F4809117
:1001200080008F7D03C0809180008F778093800056
:10013000089584B58F7784BD089584B58F7DFBCFF6
:100140008091B0008F778093B00008958091B000C7
:100150008F7DF9CFCF93DF93282F30E0F901E4585A
:10016000FF4F8491F901E057FF4FD491F901E25517
:10017000FF4FC491CC23A1F081110E948100EC2F8C
:10018000F0E0EE0FFF1FEE58FF4FA591B491EC91F8
:10019000ED2381E090E009F480E0DF91CF910895B4
:1001A00080E090E0FACF1F93CF93DF93282F30E0C9
:1001B000F901E458FF4F8491F901E057FF4FD491C2
:1001C000F901E255FF4FC491CC23A9F0162F8111FC
:1001D0000E948100EC2FF0E0EE0FFF1FEC55FF4F67
:1001E000A591B4918FB7F894EC91111108C0D095F6
:1001F000DE23DC938FBFDF91CF911F910895DE2B1B
:10020000F8CFCF93DF9390E0FC01E057FF4F2491AC
:1002100082559F4FFC0184918823D1F090E0880F94
:10022000991FFC01E859FF4FA591B491FC01EC55D1
:10023000FF4FC591D49161110EC09FB7F8948C9176
:10024000E22FE0958E238C932881E223E8839FBFE1
:10025000DF91CF9108958FB7F894EC91E22BEC9356
:100260008FBFF6CF0F931F93CF938C018091020124
:100270008C3039F08F3F09F444C0CF911F910F911A
:100280000895E2ECF0E0C491C7FDF7CF61E08CE0A7
:100290000E940101CC2319F0C23009F0A1C09801DD
:1002A00050E040E068E478EE81E090E00E94500683
:1002B000BA01A9014150510961097109CC2309F41E
:1002C000CFC08091B100887F84608093B100C1303D
:1002D00009F49EC0C23009F4B0C0C111CECF47BDF1
:1002E0008FEF9FEFDC0180932A0190932B01A09365
:1002F0002C01B0932D0180916E00826080936E007E
:10030000BCCF8CE080930201E2ECF0E0C491CF3FDF
:1003100009F4B3CFC13021F150F0C23009F43EC02E
:10032000C7FDABCF61E08CE00E940101B5CF14BCEA
:1003300015BC84B5826084BD85B5816085BDEAEB5E
:10034000F0E0E491F0E0EE0FFF1FEC55FF4F8591D8
:100350009491ECE9F0E0E491E0932101C0E096CFC4
:1003600010928000109281008091810088608093BB
:10037000810080918100816080938100EAEBF0E050
:10038000E491F0E0EE0FFF1FEC55FF4F8591949143
:10039000ECE9F0E0E491E093200178CF1092B00016
:1003A0001092B1008091B00082608093B000809183
:1003B000B10081608093B100EAEBF0E0E491F0E0FD
:1003C000EE0FFF1FEC55FF4F8591949190931F0105
:1003D00080931E01ECE9F0E0E491E0931D0156CF1B
:1003E000980150E040E060E072E18AE790E00E940E
:1003F0005006BA01A9014150510961097109C13082
:1004000009F065CF80918100887F816080938100B1
:1004100050938900409388008FEF9FEFDC01809319
:10042000260190932701A0932801B0932901809180
:100430006F00826080936F0020CF4093B3008FEFF6
:100440009FEFDC018093220190932301A09324016C
:10045000B0932501809170008260809370000DCF71
:1004600085B5887F836085BD3ACF3FB7F89480918A
:10047000190190911A01A0911B01B0911C0126B5A0
:10048000A89B05C02F3F19F00196A11DB11D3FBFCC
:10049000BA2FA92F982F8827BC01CD01620F711D9B
:1004A000811D911D42E0660F771F881F991F4A9595
:1004B000D1F708958F929F92AF92BF92CF92DF9221
:1004C000EF92FF924B015C010E9435026B017C01AF
:1004D0000E9435026C197D098E099F09683E7340A0
:1004E00081059105A8F321E0821A9108A108B108BD
:1004F00088EEC80E83E0D81EE11CF11C8114910423
:10050000A104B10429F7FF90EF90DF90CF90BF9046
:10051000AF909F908F9008959091020189130BC026
:10052000E2ECF0E0E4919FEF90930201E13049F0BA
:1005300028F0E23061F060E00C94D30010926E007D
:10054000FACF90916F009D7F90936F00F4CF9091C0
:1005500070009D7F9093700091E09093B000909117
:10056000B100987F94609093B1001092B300E3CFF4
:1005700083309105E9F034F48130910549F0029718
:10058000A1F0089584309105B1F00597B9F0089570
:1005900084EF91E00E94320168EC70E080E090E02E
:1005A0000E945A028CE00C948C0288E592E0F2CF13
:1005B0008CEB92E0EFCF80E293E0ECCF84E893E025
:1005C000E9CF1F93CF93DF93EC01162F682F617053
:1005D00082E00E94D300BE0175956795617083E04B
:1005E0000E94D300BE0175956795759567956170FA
:1005F00084E00E94D30023E0D595C7952A95E1F7C2
:100600006C2F617085E00E94D30060E0812F0E9412
:10061000D3008BEC97E00197F1F761E0812FDF9138
:10062000CF911F910C94D300CF92DF92EF92FF9263
:100630000F931F93CF93DF937B018A01CAE0D0E031
:10064000BE010E943C069B016C0166E070E0C9019E
:100650000E94E10267E070E0C6010E94E102C7016A
:10066000BE010E943C069B017C0168E070E0C9016C
:100670000E94E10269E070E0C7010E94E102C80146
:10068000BE010E943C069B01EC016AE070E0C901DA
:100690000E94E1026BE070E0CE01DF91CF911F91EB
:1006A0000F91FF90EF90DF90CF900C94E1021F929A
:1006B0000F920FB60F9211242F933F938F939F9316
:1006C000AF93BF938091150190911601A0911701EE
:1006D000B09118013091140123E0230F2D3758F504
:1006E0000196A11DB11D20931401809315019093D3
:1006F0001601A0931701B0931801809119019091F0
:100700001A01A0911B01B0911C010196A11DB11D00
:100710008093190190931A01A0931B01B0931C01BF
:10072000BF91AF919F918F913F912F910F900FBEED
:100730000F901F90189526E8230F0296A11DB11D5A
:10074000D2CF1F920F920FB60F9211242F933F9387
:100750004F935F936F937F938F939F93AF93BF93C9
:10076000EF93FF938091220190912301A0912401A6
:10077000B0912501892B8A2B8B2BD1F190911D01F2
:10078000E0911E01F0911F01808189278083809173
:10079000220190912301A0912401B0912501181606
:1007A00019061A061B069CF48091220190912301E0
:1007B000A0912401B09125010197A109B10980936D
:1007C000220190932301A0932401B0932501FF916E
:1007D000EF91BF91AF919F918F917F916F915F91B9
:1007E0004F913F912F910F900FBE0F901F90189532
:1007F000809102010E948C02EACF789484B58260D5
:1008000084BD84B5816084BD85B5826085BD85B5B4
:10081000816085BD80916E00816080936E00109232
:1008200081008091810082608093810080918100AD
:10083000816080938100809180008160809380003E
:100840008091B10084608093B1008091B00081609C
:100850008093B00080917A00846080937A008091C8
:100860007A00826080937A0080917A008160809320
:100870007A0080917A00806880937A001092C1009B
:1008800060E08EE00E94010160E08FE00E940101C3
:1008900060E080E10E94010160E081E10E940101CD
:1008A00060E082E10E94010160E083E10E940101B9
:1008B00061E082E00E94010161E083E00E940101A9
:1008C00061E084E00E94010161E085E00E94010195
:1008D00061E086E00E94010161E087E00E94010181
:1008E00061E088E00E94010161E089E00E9401016D
:1008F00061E08AE00E94010161E08BE00E94010159
:1009000061E086E00E94D30061E087E00E94D300AE
:1009100061E088E00E94D30061E089E00E94D3009A
:1009200061E08AE00E94D30061E08BE00E94D30086
:1009300061E08CE00E94010161E08DE00E94010114
:1009400060E08CE00E94D30060E08DE00E94D30064
:100950000CE310E088E1E82EF12C95E0A92EB12CF3
:1009600020E0C22E20E0D22E772473948EE00E94E5
:10097000AA00019709F04BC068EC70E080E090E0BD
:100980000E945A0280E10E94AA00019791F468EC4B
:1009900070E080E090E00E945A02809109019091FD
:1009A0000A010196B7010E943C0690930A018093C8
:1009B000090181E10E94AA00019791F468EC70E0BE
:1009C00080E090E00E945A0280910B0190910C010E
:1009D0000196B8010E943C0690930C0180930B0194
:1009E00082E10E94AA00019791F468EC70E080E037
:1009F00090E00E945A0280910D0190910E010196A3
:100A0000B8010E943C0690930E0180930D018FE087
:100A10000E94AA00019709F06DC068EC70E080E0C8
:100A200090E00E945A027092130180E10E94AA0095
:100A3000019791F468EC70E080E090E00E945A0227
:100A400080910501909106010196B7010E943C0634
:100A5000909306018093050181E10E94AA0001970D
:100A600091F468EC70E080E090E00E945A0280917E
:100A70000701909108010196B8010E943C069093ED
:100A80000801809307017092040183E10E94AA008B
:100A90000197B1F568EC70E080E090E00E945A02A6
:100AA0008091000190910101B5010E943C06EC018A
:100AB0002196D0930101C0930001912C812C8C16BA
:100AC0009D06DCF461E08DE00E94D30068EC70E0EC
:100AD00080E090E00E945A0260E08DE00E94D30026
:100AE00068EC70E080E090E00E945A022FEF821ADA
:100AF000920AE5CF10921301C8CFCE010E94B8022E
:100B000080911301811171C02FB7F8948091150164
:100B100090911601A0911701B09118012FBF40913B
:100B20000F01509110016091110170911201841B0D
:100B3000950BA60BB70B883E9340A105B10508F4B1
:100B400050C02FB7F8948091150190911601A09193
:100B50001701B09118012FBF80930F0190931001DE
:100B6000A0931101B093120180910D0190910E019B
:100B700001968C3391050CF04BC090930E0180933D
:100B80000D0180910401882361F1209109013091C8
:100B90000A0180910501909106012817390709F58E
:100BA00020910B0130910C01809107019091080177
:100BB00028173907B1F480910D0190910E01892B0E
:100BC00081F480910001909101010E94B80260EDD2
:100BD00077E080E090E00E945A0260E08CE00E94A2
:100BE000D300809113018823D1F1609107017091A6
:100BF000080150E040E080910501909106010E94BB
:100C00001403C114D10409F4B1CE0E940000AECE89
:100C100010920E0110920D0180910B0190910C0128
:100C200001968C3391052CF490930C0180930B0169
:100C3000A8CF10920C0110920B01809109019091A4
:100C40000A010196883191052CF490930A01809352
:100C5000090197CF10920A011092090192CF409199
:100C60000D0150910E0160910B0170910C0180916A
:100C7000090190910A01C3CF97FB072E16F4009447
:100C800007D077FD09D00E946F0607FC05D03EF41F
:100C9000909581959F4F0895709561957F4F089528
:100CA000052E97FB1EF400940E94670657FD07D09F
:100CB0000E94830607FC03D04EF40C9467065095FF
:100CC0004095309521953F4F4F4F5F4F0895909538
:100CD0008095709561957F4F8F4F9F4F0895AA1B08
:100CE000BB1B51E107C0AA1FBB1FA617B70710F017
:100CF000A61BB70B881F991F5A95A9F78095909549
:100D0000BC01CD010895A1E21A2EAA1BBB1BFD0157
:100D10000DC0AA1FBB1FEE1FFF1FA217B307E407DA
:100D2000F50720F0A21BB30BE40BF50B661F771F32
:100D3000881F991F1A9469F7609570958095909512
:100D40009B01AC01BD01CF010895F894FFCF0100D4
:020D5000FF00A2
:107E0000112484B714BE81FFF0D085E080938100F7
:107E100082E08093C00088E18093C10086E0809377
:107E2000C20080E18093C4008EE0C9D0259A86E02C
:107E300020E33CEF91E0309385002093840096BBD3
:107E4000B09BFECF1D9AA8958150A9F7CC24DD24C4
:107E500088248394B5E0AB2EA1E19A2EF3E0BF2EE7
:107E6000A2D0813461F49FD0082FAFD0023811F036
:107E7000013811F484E001C083E08DD089C08234E0
:107E800011F484E103C0853419F485E0A6D080C0E4
:107E9000853579F488D0E82EFF2485D0082F10E0AE
:107EA000102F00270E291F29000F111F8ED06801E7
:107EB0006FC0863521F484E090D080E0DECF843638
:107EC00009F040C070D06FD0082F6DD080E0C81688
:107ED00080E7D80618F4F601B7BEE895C0E0D1E017
:107EE00062D089930C17E1F7F0E0CF16F0E7DF06D8
:107EF00018F0F601B7BEE89568D007B600FCFDCFD4
:107F0000A601A0E0B1E02C9130E011968C91119780
:107F100090E0982F8827822B932B1296FA010C0160
:107F200087BEE89511244E5F5F4FF1E0A038BF0790
:107F300051F7F601A7BEE89507B600FCFDCF97BE46
:107F4000E89526C08437B1F42ED02DD0F82E2BD052
:107F50003CD0F601EF2C8F010F5F1F4F84911BD097
:107F6000EA94F801C1F70894C11CD11CFA94CF0C13
:107F7000D11C0EC0853739F428D08EE10CD085E9AC
:107F80000AD08FE07ACF813511F488E018D01DD067
:107F900080E101D065CF982F8091C00085FFFCCF94
:107FA0009093C60008958091C00087FFFCCF809118
:107FB000C00084FD01C0A8958091C6000895E0E648
:107FC000F0E098E1908380830895EDDF803219F02E
:107FD00088E0F5DFFFCF84E1DECF1F93182FE3DFCA
:107FE0001150E9F7F2DF1F91089580E0E8DFEE27F6
:047FF000FF270994CA
:027FFE00040479
:00000001FF
